{
  "_format": "hh3-artifact-1",
  "contractName": "StockToken",
  "sourceName": "contracts/StockToken.sol",
  "abi": [
    {
      "inputs": [
        {
          "internalType": "string",
          "name": "name_",
          "type": "string"
        },
        {
          "internalType": "string",
          "name": "symbol_",
          "type": "string"
        },
        {
          "internalType": "string",
          "name": "_stockSymbol",
          "type": "string"
        }
      ],
      "stateMutability": "nonpayable",
      "type": "constructor"
    },
    {
      "inputs": [
        {
          "internalType": "address",
          "name": "spender",
          "type": "address"
        },
        {
          "internalType": "uint256",
          "name": "allowance",
          "type": "uint256"
        },
        {
          "internalType": "uint256",
          "name": "needed",
          "type": "uint256"
        }
      ],
      "name": "ERC20InsufficientAllowance",
      "type": "error"
    },
    {
      "inputs": [
        {
          "internalType": "address",
          "name": "sender",
          "type": "address"
        },
        {
          "internalType": "uint256",
          "name": "balance",
          "type": "uint256"
        },
        {
          "internalType": "uint256",
          "name": "needed",
          "type": "uint256"
        }
      ],
      "name": "ERC20InsufficientBalance",
      "type": "error"
    },
    {
      "inputs": [
        {
          "internalType": "address",
          "name": "approver",
          "type": "address"
        }
      ],
      "name": "ERC20InvalidApprover",
      "type": "error"
    },
    {
      "inputs": [
        {
          "internalType": "address",
          "name": "receiver",
          "type": "address"
        }
      ],
      "name": "ERC20InvalidReceiver",
      "type": "error"
    },
    {
      "inputs": [
        {
          "internalType": "address",
          "name": "sender",
          "type": "address"
        }
      ],
      "name": "ERC20InvalidSender",
      "type": "error"
    },
    {
      "inputs": [
        {
          "internalType": "address",
          "name": "spender",
          "type": "address"
        }
      ],
      "name": "ERC20InvalidSpender",
      "type": "error"
    },
    {
      "inputs": [
        {
          "internalType": "address",
          "name": "owner",
          "type": "address"
        }
      ],
      "name": "OwnableInvalidOwner",
      "type": "error"
    },
    {
      "inputs": [
        {
          "internalType": "address",
          "name": "account",
          "type": "address"
        }
      ],
      "name": "OwnableUnauthorizedAccount",
      "type": "error"
    },
    {
      "anonymous": false,
      "inputs": [
        {
          "indexed": true,
          "internalType": "address",
          "name": "owner",
          "type": "address"
        },
        {
          "indexed": true,
          "internalType": "address",
          "name": "spender",
          "type": "address"
        },
        {
          "indexed": false,
          "internalType": "uint256",
          "name": "value",
          "type": "uint256"
        }
      ],
      "name": "Approval",
      "type": "event"
    },
    {
      "anonymous": false,
      "inputs": [
        {
          "indexed": true,
          "internalType": "address",
          "name": "previousOwner",
          "type": "address"
        },
        {
          "indexed": true,
          "internalType": "address",
          "name": "newOwner",
          "type": "address"
        }
      ],
      "name": "OwnershipTransferred",
      "type": "event"
    },
    {
      "anonymous": false,
      "inputs": [
        {
          "indexed": true,
          "internalType": "address",
          "name": "from",
          "type": "address"
        },
        {
          "indexed": true,
          "internalType": "address",
          "name": "to",
          "type": "address"
        },
        {
          "indexed": false,
          "internalType": "uint256",
          "name": "value",
          "type": "uint256"
        }
      ],
      "name": "Transfer",
      "type": "event"
    },
    {
      "inputs": [
        {
          "internalType": "address",
          "name": "owner",
          "type": "address"
        },
        {
          "internalType": "address",
          "name": "spender",
          "type": "address"
        }
      ],
      "name": "allowance",
      "outputs": [
        {
          "internalType": "uint256",
          "name": "",
          "type": "uint256"
        }
      ],
      "stateMutability": "view",
      "type": "function"
    },
    {
      "inputs": [
        {
          "internalType": "address",
          "name": "spender",
          "type": "address"
        },
        {
          "internalType": "uint256",
          "name": "value",
          "type": "uint256"
        }
      ],
      "name": "approve",
      "outputs": [
        {
          "internalType": "bool",
          "name": "",
          "type": "bool"
        }
      ],
      "stateMutability": "nonpayable",
      "type": "function"
    },
    {
      "inputs": [
        {
          "internalType": "address",
          "name": "account",
          "type": "address"
        }
      ],
      "name": "balanceOf",
      "outputs": [
        {
          "internalType": "uint256",
          "name": "",
          "type": "uint256"
        }
      ],
      "stateMutability": "view",
      "type": "function"
    },
    {
      "inputs": [],
      "name": "decimals",
      "outputs": [
        {
          "internalType": "uint8",
          "name": "",
          "type": "uint8"
        }
      ],
      "stateMutability": "view",
      "type": "function"
    },
    {
      "inputs": [
        {
          "internalType": "address",
          "name": "to",
          "type": "address"
        },
        {
          "internalType": "uint256",
          "name": "amount",
          "type": "uint256"
        }
      ],
      "name": "mint",
      "outputs": [],
      "stateMutability": "nonpayable",
      "type": "function"
    },
    {
      "inputs": [],
      "name": "name",
      "outputs": [
        {
          "internalType": "string",
          "name": "",
          "type": "string"
        }
      ],
      "stateMutability": "view",
      "type": "function"
    },
    {
      "inputs": [],
      "name": "owner",
      "outputs": [
        {
          "internalType": "address",
          "name": "",
          "type": "address"
        }
      ],
      "stateMutability": "view",
      "type": "function"
    },
    {
      "inputs": [],
      "name": "renounceOwnership",
      "outputs": [],
      "stateMutability": "nonpayable",
      "type": "function"
    },
    {
      "inputs": [],
      "name": "stockSymbol",
      "outputs": [
        {
          "internalType": "string",
          "name": "",
          "type": "string"
        }
      ],
      "stateMutability": "view",
      "type": "function"
    },
    {
      "inputs": [],
      "name": "symbol",
      "outputs": [
        {
          "internalType": "string",
          "name": "",
          "type": "string"
        }
      ],
      "stateMutability": "view",
      "type": "function"
    },
    {
      "inputs": [],
      "name": "totalSupply",
      "outputs": [
        {
          "internalType": "uint256",
          "name": "",
          "type": "uint256"
        }
      ],
      "stateMutability": "view",
      "type": "function"
    },
    {
      "inputs": [
        {
          "internalType": "address",
          "name": "to",
          "type": "address"
        },
        {
          "internalType": "uint256",
          "name": "value",
          "type": "uint256"
        }
      ],
      "name": "transfer",
      "outputs": [
        {
          "internalType": "bool",
          "name": "",
          "type": "bool"
        }
      ],
      "stateMutability": "nonpayable",
      "type": "function"
    },
    {
      "inputs": [
        {
          "internalType": "address",
          "name": "from",
          "type": "address"
        },
        {
          "internalType": "address",
          "name": "to",
          "type": "address"
        },
        {
          "internalType": "uint256",
          "name": "value",
          "type": "uint256"
        }
      ],
      "name": "transferFrom",
      "outputs": [
        {
          "internalType": "bool",
          "name": "",
          "type": "bool"
        }
      ],
      "stateMutability": "nonpayable",
      "type": "function"
    },
    {
      "inputs": [
        {
          "internalType": "address",
          "name": "newOwner",
          "type": "address"
        }
      ],
      "name": "transferOwnership",
      "outputs": [],
      "stateMutability": "nonpayable",
      "type": "function"
    }
  ],
  "bytecode": "0x608060405234801562000010575f80fd5b5060405162000ce938038062000ce98339810160408190526200003391620001b7565b3383836003620000448382620002ce565b506004620000538282620002ce565b5050506001600160a01b0381166200008457604051631e4fbdf760e01b81525f600482015260240160405180910390fd5b6200008f81620000a8565b5060066200009e8282620002ce565b5050505062000396565b600580546001600160a01b038381166001600160a01b0319831681179093556040519116919082907f8be0079c531659141344cd1fd0a4f28419497f9722a3daafe3b4186f6b6457e0905f90a35050565b634e487b7160e01b5f52604160045260245ffd5b5f82601f8301126200011d575f80fd5b81516001600160401b03808211156200013a576200013a620000f9565b604051601f8301601f19908116603f01168101908282118183101715620001655762000165620000f9565b8160405283815260209250868385880101111562000181575f80fd5b5f91505b83821015620001a4578582018301518183018401529082019062000185565b5f93810190920192909252949350505050565b5f805f60608486031215620001ca575f80fd5b83516001600160401b0380821115620001e1575f80fd5b620001ef878388016200010d565b9450602086015191508082111562000205575f80fd5b62000213878388016200010d565b9350604086015191508082111562000229575f80fd5b5062000238868287016200010d565b9150509250925092565b600181811c908216806200025757607f821691505b6020821081036200027657634e487b7160e01b5f52602260045260245ffd5b50919050565b601f821115620002c9575f81815260208120601f850160051c81016020861015620002a45750805b601f850160051c820191505b81811015620002c557828155600101620002b0565b5050505b505050565b81516001600160401b03811115620002ea57620002ea620000f9565b6200030281620002fb845462000242565b846200027c565b602080601f83116001811462000338575f8415620003205750858301515b5f19600386901b1c1916600185901b178555620002c5565b5f85815260208120601f198616915b82811015620003685788860151825594840194600190910190840162000347565b50858210156200038657878501515f19600388901b60f8161c191681555b5050505050600190811b01905550565b61094580620003a45f395ff3fe608060405234801561000f575f80fd5b50600436106100e5575f3560e01c8063715018a611610088578063a9059cbb11610063578063a9059cbb146101c6578063c87cbe56146101d9578063dd62ed3e146101e1578063f2fde38b14610219575f80fd5b8063715018a61461019b5780638da5cb5b146101a357806395d89b41146101be575f80fd5b806323b872dd116100c357806323b872dd1461013c578063313ce5671461014f57806340c10f191461015e57806370a0823114610173575f80fd5b806306fdde03146100e9578063095ea7b31461010757806318160ddd1461012a575b5f80fd5b6100f161022c565b6040516100fe91906107a0565b60405180910390f35b61011a610115366004610806565b6102bc565b60405190151581526020016100fe565b6002545b6040519081526020016100fe565b61011a61014a36600461082e565b6102d5565b604051601281526020016100fe565b61017161016c366004610806565b6102f8565b005b61012e610181366004610867565b6001600160a01b03165f9081526020819052604090205490565b61017161030e565b6005546040516001600160a01b0390911681526020016100fe565b6100f1610321565b61011a6101d4366004610806565b610330565b6100f161033d565b61012e6101ef366004610887565b6001600160a01b039182165f90815260016020908152604080832093909416825291909152205490565b610171610227366004610867565b6103c9565b60606003805461023b906108b8565b80601f0160208091040260200160405190810160405280929190818152602001828054610267906108b8565b80156102b25780601f10610289576101008083540402835291602001916102b2565b820191905f5260205f20905b81548152906001019060200180831161029557829003601f168201915b5050505050905090565b5f336102c981858561040b565b60019150505b92915050565b5f336102e285828561041d565b6102ed858585610499565b506001949350505050565b6103006104f6565b61030a8282610523565b5050565b6103166104f6565b61031f5f610557565b565b60606004805461023b906108b8565b5f336102c9818585610499565b6006805461034a906108b8565b80601f0160208091040260200160405190810160405280929190818152602001828054610376906108b8565b80156103c15780601f10610398576101008083540402835291602001916103c1565b820191905f5260205f20905b8154815290600101906020018083116103a457829003601f168201915b505050505081565b6103d16104f6565b6001600160a01b0381166103ff57604051631e4fbdf760e01b81525f60048201526024015b60405180910390fd5b61040881610557565b50565b61041883838360016105a8565b505050565b6001600160a01b038381165f908152600160209081526040808320938616835292905220545f19811015610493578181101561048557604051637dc7a0d960e11b81526001600160a01b038416600482015260248101829052604481018390526064016103f6565b61049384848484035f6105a8565b50505050565b6001600160a01b0383166104c257604051634b637e8f60e11b81525f60048201526024016103f6565b6001600160a01b0382166104eb5760405163ec442f0560e01b81525f60048201526024016103f6565b61041883838361067a565b6005546001600160a01b0316331461031f5760405163118cdaa760e01b81523360048201526024016103f6565b6001600160a01b03821661054c5760405163ec442f0560e01b81525f60048201526024016103f6565b61030a5f838361067a565b600580546001600160a01b038381166001600160a01b0319831681179093556040519116919082907f8be0079c531659141344cd1fd0a4f28419497f9722a3daafe3b4186f6b6457e0905f90a35050565b6001600160a01b0384166105d15760405163e602df0560e01b81525f60048201526024016103f6565b6001600160a01b0383166105fa57604051634a1406b160e11b81525f60048201526024016103f6565b6001600160a01b038085165f908152600160209081526040808320938716835292905220829055801561049357826001600160a01b0316846001600160a01b03167f8c5be1e5ebec7d5bd14f71427d1e84f3dd0314c0f7b2291e5b200ac8c7c3b9258460405161066c91815260200190565b60405180910390a350505050565b6001600160a01b0383166106a4578060025f82825461069991906108f0565b909155506107149050565b6001600160a01b0383165f90815260208190526040902054818110156106f65760405163391434e360e21b81526001600160a01b038516600482015260248101829052604481018390526064016103f6565b6001600160a01b0384165f9081526020819052604090209082900390555b6001600160a01b0382166107305760028054829003905561074e565b6001600160a01b0382165f9081526020819052604090208054820190555b816001600160a01b0316836001600160a01b03167fddf252ad1be2c89b69c2b068fc378daa952ba7f163c4a11628f55a4df523b3ef8360405161079391815260200190565b60405180910390a3505050565b5f6020808352835180828501525f5b818110156107cb578581018301518582016040015282016107af565b505f604082860101526040601f19601f8301168501019250505092915050565b80356001600160a01b0381168114610801575f80fd5b919050565b5f8060408385031215610817575f80fd5b610820836107eb565b946020939093013593505050565b5f805f60608486031215610840575f80fd5b610849846107eb565b9250610857602085016107eb565b9150604084013590509250925092565b5f60208284031215610877575f80fd5b610880826107eb565b9392505050565b5f8060408385031215610898575f80fd5b6108a1836107eb565b91506108af602084016107eb565b90509250929050565b600181811c908216806108cc57607f821691505b6020821081036108ea57634e487b7160e01b5f52602260045260245ffd5b50919050565b808201808211156102cf57634e487b7160e01b5f52601160045260245ffdfea26469706673582212206d78ccc61c10fe5e2de8a203cfb0409e783783b386d360fb8cd3ec50c08eaccc64736f6c63430008140033",
  "linkReferences": {},
  "deployedLinkReferences": {},
  "immutableReferences": {},
  "inputSourceName": "project/contracts/StockToken.sol",
  "buildInfoId": "solc-0_8_20-79a0d8fc3f2e621c8ac3e8fa7a191eb167353762"
}